{
  "contractName": "Poem",
  "abi": [
    {
      "inputs": [],
      "payable": false,
      "stateMutability": "nonpayable",
      "type": "constructor"
    },
    {
      "anonymous": false,
      "inputs": [
        {
          "indexed": false,
          "internalType": "uint256",
          "name": "id",
          "type": "uint256"
        },
        {
          "indexed": false,
          "internalType": "string",
          "name": "content",
          "type": "string"
        },
        {
          "indexed": false,
          "internalType": "address payable",
          "name": "poet",
          "type": "address"
        },
        {
          "indexed": false,
          "internalType": "uint256",
          "name": "addedAt",
          "type": "uint256"
        }
      ],
      "name": "LineAdded",
      "type": "event"
    },
    {
      "constant": true,
      "inputs": [],
      "name": "lineCount",
      "outputs": [
        {
          "internalType": "uint256",
          "name": "",
          "type": "uint256"
        }
      ],
      "payable": false,
      "stateMutability": "view",
      "type": "function"
    },
    {
      "constant": true,
      "inputs": [
        {
          "internalType": "uint256",
          "name": "",
          "type": "uint256"
        }
      ],
      "name": "lines",
      "outputs": [
        {
          "internalType": "uint256",
          "name": "id",
          "type": "uint256"
        },
        {
          "internalType": "string",
          "name": "content",
          "type": "string"
        },
        {
          "internalType": "address payable",
          "name": "poet",
          "type": "address"
        },
        {
          "internalType": "uint256",
          "name": "addedAt",
          "type": "uint256"
        }
      ],
      "payable": false,
      "stateMutability": "view",
      "type": "function"
    },
    {
      "constant": true,
      "inputs": [],
      "name": "name",
      "outputs": [
        {
          "internalType": "string",
          "name": "",
          "type": "string"
        }
      ],
      "payable": false,
      "stateMutability": "view",
      "type": "function"
    },
    {
      "constant": false,
      "inputs": [
        {
          "internalType": "string",
          "name": "_content",
          "type": "string"
        }
      ],
      "name": "addLine",
      "outputs": [],
      "payable": false,
      "stateMutability": "nonpayable",
      "type": "function"
    }
  ],
  "bytecode": "0x6080604052600060015534801561001557600080fd5b506040518060400160405280600b81526020017f536f6e6e6574204461707000000000000000000000000000000000000000000081525060009080519060200190610061929190610067565b5061010c565b828054600181600116156101000203166002900490600052602060002090601f016020900481019282601f106100a857805160ff19168380011785556100d6565b828001600101855582156100d6579182015b828111156100d55782518255916020019190600101906100ba565b5b5090506100e391906100e7565b5090565b61010991905b808211156101055760008160009055506001016100ed565b5090565b90565b6106c98061011b6000396000f3fe608060405234801561001057600080fd5b506004361061004c5760003560e01c806306fdde031461005157806313b0fc0c146100d45780631c86bc851461018f578063fd3615c914610277575b600080fd5b610059610295565b6040518080602001828103825283818151815260200191508051906020019080838360005b8381101561009957808201518184015260208101905061007e565b50505050905090810190601f1680156100c65780820380516001836020036101000a031916815260200191505b509250505060405180910390f35b61018d600480360360208110156100ea57600080fd5b810190808035906020019064010000000081111561010757600080fd5b82018360208201111561011957600080fd5b8035906020019184600183028401116401000000008311171561013b57600080fd5b91908080601f016020809104026020016040519081016040528093929190818152602001838380828437600081840152601f19601f820116905080830192505050505050509192919290505050610333565b005b6101bb600480360360208110156101a557600080fd5b8101908080359060200190929190505050610501565b60405180858152602001806020018473ffffffffffffffffffffffffffffffffffffffff1673ffffffffffffffffffffffffffffffffffffffff168152602001838152602001828103825285818151815260200191508051906020019080838360005b8381101561023957808201518184015260208101905061021e565b50505050905090810190601f1680156102665780820380516001836020036101000a031916815260200191505b509550505050505060405180910390f35b61027f6105e9565b6040518082815260200191505060405180910390f35b60008054600181600116156101000203166002900480601f01602080910402602001604051908101604052809291908181526020018280546001816001161561010002031660029004801561032b5780601f106103005761010080835404028352916020019161032b565b820191906000526020600020905b81548152906001019060200180831161030e57829003601f168201915b505050505081565b600081511161034157600080fd5b600160008154809291906001019190505550604051806080016040528060015481526020018281526020013373ffffffffffffffffffffffffffffffffffffffff168152602001428152506002600060015481526020019081526020016000206000820151816000015560208201518160010190805190602001906103c79291906105ef565b5060408201518160020160006101000a81548173ffffffffffffffffffffffffffffffffffffffff021916908373ffffffffffffffffffffffffffffffffffffffff160217905550606082015181600301559050507fc488399db5b8ad235e282a850555292e856b143c9f6256ffb785b24bd9ae878660015482334260405180858152602001806020018473ffffffffffffffffffffffffffffffffffffffff1673ffffffffffffffffffffffffffffffffffffffff168152602001838152602001828103825285818151815260200191508051906020019080838360005b838110156104c15780820151818401526020810190506104a6565b50505050905090810190601f1680156104ee5780820380516001836020036101000a031916815260200191505b509550505050505060405180910390a150565b6002602052806000526040600020600091509050806000015490806001018054600181600116156101000203166002900480601f0160208091040260200160405190810160405280929190818152602001828054600181600116156101000203166002900480156105b35780601f10610588576101008083540402835291602001916105b3565b820191906000526020600020905b81548152906001019060200180831161059657829003601f168201915b5050505050908060020160009054906101000a900473ffffffffffffffffffffffffffffffffffffffff16908060030154905084565b60015481565b828054600181600116156101000203166002900490600052602060002090601f016020900481019282601f1061063057805160ff191683800117855561065e565b8280016001018555821561065e579182015b8281111561065d578251825591602001919060010190610642565b5b50905061066b919061066f565b5090565b61069191905b8082111561068d576000816000905550600101610675565b5090565b9056fea265627a7a72315820016da72657183b82245eb6b1d9d63d0ee6c3c529e19cfd680a8b69038b0af85564736f6c63430005100032",
  "source": "pragma solidity ^0.5.0;\n\ncontract Poem {\n    string public name;\n    uint public lineCount = 0;\n    mapping(uint => PoemLine) public lines;\n\n    struct PoemLine {\n        uint id;\n        string content;\n        address payable poet;\n        uint addedAt;\n    }\n\n    event LineAdded(\n        uint id,\n        string content,\n        address payable poet,\n        uint addedAt\n    );\n\n    constructor() public {\n        name = \"Sonnet Dapp\";\n    }\n\n    function addLine(string memory _content) public {\n        // Require a valid name\n        require(bytes(_content).length > 0);\n        // Increment product count\n        lineCount ++;\n        // Create the product\n        lines[lineCount] = PoemLine(lineCount, _content, msg.sender, block.timestamp);\n        // Trigger an event\n        emit LineAdded(lineCount, _content, msg.sender, block.timestamp);\n    }\n}",
  "sourcePath": "/Users/esc/Code/chainpoem/src/contracts/Poem.sol",
  "compiler": {
    "name": "solc",
    "version": "0.5.16+commit.9c3226ce.Emscripten.clang"
  },
  "schemaVersion": "3.4.4",
  "updatedAt": "2022-01-30T21:10:56.421Z",
  "devdoc": {
    "methods": {}
  },
  "userdoc": {
    "methods": {}
  }
}